{
  "contractName": "SpaceSecurityLogger",
  "abi": [
    {
      "inputs": [],
      "stateMutability": "nonpayable",
      "type": "constructor"
    },
    {
      "anonymous": false,
      "inputs": [
        {
          "indexed": true,
          "internalType": "uint256",
          "name": "anomalyId",
          "type": "uint256"
        },
        {
          "indexed": true,
          "internalType": "string",
          "name": "satelliteId",
          "type": "string"
        },
        {
          "indexed": false,
          "internalType": "string",
          "name": "anomalyType",
          "type": "string"
        },
        {
          "indexed": false,
          "internalType": "uint256",
          "name": "confidenceScore",
          "type": "uint256"
        },
        {
          "indexed": false,
          "internalType": "uint256",
          "name": "timestamp",
          "type": "uint256"
        }
      ],
      "name": "AnomalyDetected",
      "type": "event"
    },
    {
      "anonymous": false,
      "inputs": [
        {
          "indexed": true,
          "internalType": "address",
          "name": "reporter",
          "type": "address"
        }
      ],
      "name": "ReporterAuthorized",
      "type": "event"
    },
    {
      "anonymous": false,
      "inputs": [
        {
          "indexed": true,
          "internalType": "uint256",
          "name": "eventId",
          "type": "uint256"
        },
        {
          "indexed": true,
          "internalType": "string",
          "name": "satelliteId",
          "type": "string"
        },
        {
          "indexed": false,
          "internalType": "string",
          "name": "eventType",
          "type": "string"
        },
        {
          "indexed": false,
          "internalType": "uint256",
          "name": "timestamp",
          "type": "uint256"
        }
      ],
      "name": "SecurityEventLogged",
      "type": "event"
    },
    {
      "inputs": [
        {
          "internalType": "uint256",
          "name": "",
          "type": "uint256"
        }
      ],
      "name": "anomalyEvents",
      "outputs": [
        {
          "internalType": "uint256",
          "name": "timestamp",
          "type": "uint256"
        },
        {
          "internalType": "string",
          "name": "satelliteId",
          "type": "string"
        },
        {
          "internalType": "string",
          "name": "anomalyType",
          "type": "string"
        },
        {
          "internalType": "uint256",
          "name": "confidenceScore",
          "type": "uint256"
        },
        {
          "internalType": "string",
          "name": "telemetryData",
          "type": "string"
        },
        {
          "internalType": "bytes32",
          "name": "dataHash",
          "type": "bytes32"
        },
        {
          "internalType": "address",
          "name": "detector",
          "type": "address"
        }
      ],
      "stateMutability": "view",
      "type": "function",
      "constant": true
    },
    {
      "inputs": [
        {
          "internalType": "address",
          "name": "",
          "type": "address"
        }
      ],
      "name": "authorizedReporters",
      "outputs": [
        {
          "internalType": "bool",
          "name": "",
          "type": "bool"
        }
      ],
      "stateMutability": "view",
      "type": "function",
      "constant": true
    },
    {
      "inputs": [
        {
          "internalType": "bytes32",
          "name": "",
          "type": "bytes32"
        }
      ],
      "name": "eventHashes",
      "outputs": [
        {
          "internalType": "bool",
          "name": "",
          "type": "bool"
        }
      ],
      "stateMutability": "view",
      "type": "function",
      "constant": true
    },
    {
      "inputs": [
        {
          "internalType": "string",
          "name": "",
          "type": "string"
        },
        {
          "internalType": "uint256",
          "name": "",
          "type": "uint256"
        }
      ],
      "name": "eventsBySatellite",
      "outputs": [
        {
          "internalType": "uint256",
          "name": "",
          "type": "uint256"
        }
      ],
      "stateMutability": "view",
      "type": "function",
      "constant": true
    },
    {
      "inputs": [],
      "name": "owner",
      "outputs": [
        {
          "internalType": "address",
          "name": "",
          "type": "address"
        }
      ],
      "stateMutability": "view",
      "type": "function",
      "constant": true
    },
    {
      "inputs": [
        {
          "internalType": "uint256",
          "name": "",
          "type": "uint256"
        }
      ],
      "name": "securityEvents",
      "outputs": [
        {
          "internalType": "uint256",
          "name": "timestamp",
          "type": "uint256"
        },
        {
          "internalType": "string",
          "name": "satelliteId",
          "type": "string"
        },
        {
          "internalType": "string",
          "name": "eventType",
          "type": "string"
        },
        {
          "internalType": "string",
          "name": "severity",
          "type": "string"
        },
        {
          "internalType": "string",
          "name": "description",
          "type": "string"
        },
        {
          "internalType": "bytes32",
          "name": "dataHash",
          "type": "bytes32"
        },
        {
          "internalType": "address",
          "name": "reporter",
          "type": "address"
        },
        {
          "internalType": "bool",
          "name": "verified",
          "type": "bool"
        }
      ],
      "stateMutability": "view",
      "type": "function",
      "constant": true
    },
    {
      "inputs": [
        {
          "internalType": "address",
          "name": "_reporter",
          "type": "address"
        }
      ],
      "name": "authorizeReporter",
      "outputs": [],
      "stateMutability": "nonpayable",
      "type": "function"
    },
    {
      "inputs": [
        {
          "internalType": "string",
          "name": "_satelliteId",
          "type": "string"
        },
        {
          "internalType": "string",
          "name": "_eventType",
          "type": "string"
        },
        {
          "internalType": "string",
          "name": "_severity",
          "type": "string"
        },
        {
          "internalType": "string",
          "name": "_description",
          "type": "string"
        },
        {
          "internalType": "bytes32",
          "name": "_dataHash",
          "type": "bytes32"
        }
      ],
      "name": "logSecurityEvent",
      "outputs": [
        {
          "internalType": "uint256",
          "name": "",
          "type": "uint256"
        }
      ],
      "stateMutability": "nonpayable",
      "type": "function"
    },
    {
      "inputs": [
        {
          "internalType": "string",
          "name": "_satelliteId",
          "type": "string"
        },
        {
          "internalType": "string",
          "name": "_anomalyType",
          "type": "string"
        },
        {
          "internalType": "uint256",
          "name": "_confidenceScore",
          "type": "uint256"
        },
        {
          "internalType": "string",
          "name": "_telemetryData",
          "type": "string"
        },
        {
          "internalType": "bytes32",
          "name": "_dataHash",
          "type": "bytes32"
        }
      ],
      "name": "logAnomaly",
      "outputs": [
        {
          "internalType": "uint256",
          "name": "",
          "type": "uint256"
        }
      ],
      "stateMutability": "nonpayable",
      "type": "function"
    },
    {
      "inputs": [
        {
          "internalType": "uint256",
          "name": "_eventId",
          "type": "uint256"
        }
      ],
      "name": "verifyEvent",
      "outputs": [],
      "stateMutability": "nonpayable",
      "type": "function"
    },
    {
      "inputs": [
        {
          "internalType": "string",
          "name": "_satelliteId",
          "type": "string"
        }
      ],
      "name": "getEventsBySatellite",
      "outputs": [
        {
          "internalType": "uint256[]",
          "name": "",
          "type": "uint256[]"
        }
      ],
      "stateMutability": "view",
      "type": "function",
      "constant": true
    },
    {
      "inputs": [
        {
          "internalType": "uint256",
          "name": "_count",
          "type": "uint256"
        }
      ],
      "name": "getRecentSecurityEvents",
      "outputs": [
        {
          "components": [
            {
              "internalType": "uint256",
              "name": "timestamp",
              "type": "uint256"
            },
            {
              "internalType": "string",
              "name": "satelliteId",
              "type": "string"
            },
            {
              "internalType": "string",
              "name": "eventType",
              "type": "string"
            },
            {
              "internalType": "string",
              "name": "severity",
              "type": "string"
            },
            {
              "internalType": "string",
              "name": "description",
              "type": "string"
            },
            {
              "internalType": "bytes32",
              "name": "dataHash",
              "type": "bytes32"
            },
            {
              "internalType": "address",
              "name": "reporter",
              "type": "address"
            },
            {
              "internalType": "bool",
              "name": "verified",
              "type": "bool"
            }
          ],
          "internalType": "struct SpaceSecurityLogger.SecurityEvent[]",
          "name": "",
          "type": "tuple[]"
        }
      ],
      "stateMutability": "view",
      "type": "function",
      "constant": true
    },
    {
      "inputs": [
        {
          "internalType": "uint256",
          "name": "_count",
          "type": "uint256"
        }
      ],
      "name": "getRecentAnomalies",
      "outputs": [
        {
          "components": [
            {
              "internalType": "uint256",
              "name": "timestamp",
              "type": "uint256"
            },
            {
              "internalType": "string",
              "name": "satelliteId",
              "type": "string"
            },
            {
              "internalType": "string",
              "name": "anomalyType",
              "type": "string"
            },
            {
              "internalType": "uint256",
              "name": "confidenceScore",
              "type": "uint256"
            },
            {
              "internalType": "string",
              "name": "telemetryData",
              "type": "string"
            },
            {
              "internalType": "bytes32",
              "name": "dataHash",
              "type": "bytes32"
            },
            {
              "internalType": "address",
              "name": "detector",
              "type": "address"
            }
          ],
          "internalType": "struct SpaceSecurityLogger.AnomalyEvent[]",
          "name": "",
          "type": "tuple[]"
        }
      ],
      "stateMutability": "view",
      "type": "function",
      "constant": true
    },
    {
      "inputs": [],
      "name": "getTotalSecurityEvents",
      "outputs": [
        {
          "internalType": "uint256",
          "name": "",
          "type": "uint256"
        }
      ],
      "stateMutability": "view",
      "type": "function",
      "constant": true
    },
    {
      "inputs": [],
      "name": "getTotalAnomalies",
      "outputs": [
        {
          "internalType": "uint256",
          "name": "",
          "type": "uint256"
        }
      ],
      "stateMutability": "view",
      "type": "function",
      "constant": true
    },
    {
      "inputs": [],
      "name": "pauseContract",
      "outputs": [],
      "stateMutability": "nonpayable",
      "type": "function"
    }
  ],
  "bytecode": "0x608060405234801561001057600080fd5b50600580546001600160a01b031916339081179091556000908152600360205260409020805460ff19166001179055611dcd8061004e6000396000f3fe608060405234801561001057600080fd5b50600436106101005760003560e01c80639327b57811610097578063d903708b11610066578063d903708b14610260578063e662b77514610273578063e7b4d3461461027b578063ed30e03f1461029b57600080fd5b80639327b578146101dd5780639b5b6ddc14610200578063a48237d814610213578063bf896e791461023957600080fd5b8063439766ce116100d3578063439766ce14610182578063519aec761461018c5780638d251d421461019f5780638da5cb5b146101b257600080fd5b80632dbe7bd314610105578063312a9fe21461011c5780633a41429a1461013c578063428f77c81461016f575b600080fd5b6000545b6040519081526020015b60405180910390f35b61012f61012a36600461156c565b6102bb565b60405161011391906115d5565b61015f61014a3660046116a9565b60036020526000908152604090205460ff1681565b6040519015158152602001610113565b61010961017d36600461177c565b6105dd565b61018a610895565b005b61010961019a366004611816565b6108c1565b6101096101ad36600461185b565b610901565b6005546101c5906001600160a01b031681565b6040516001600160a01b039091168152602001610113565b61015f6101eb36600461156c565b60046020526000908152604090205460ff1681565b61018a61020e3660046116a9565b610ba3565b61022661022136600461156c565b610c19565b60405161011397969594939291906118f1565b61024c61024736600461156c565b610e09565b60405161011398979695949392919061195b565b61018a61026e36600461156c565b61108c565b600154610109565b61028e6102893660046119dd565b61113e565b6040516101139190611a1a565b6102ae6102a936600461156c565b6111ae565b6040516101139190611a5e565b60015460609060008184116102d057836102d2565b815b905060008167ffffffffffffffff8111156102ef576102ef6116d9565b60405190808252806020026020018201604052801561036c57816020015b6103596040518060e0016040528060008152602001606081526020016060815260200160008152602001606081526020016000801916815260200160006001600160a01b031681525090565b81526020019060019003908161030d5790505b50905060005b828110156105d4576001816103878287611b62565b6103919190611b62565b815481106103a1576103a1611b7b565b90600052602060002090600702016040518060e0016040529081600082015481526020016001820180546103d490611b91565b80601f016020809104026020016040519081016040528092919081815260200182805461040090611b91565b801561044d5780601f106104225761010080835404028352916020019161044d565b820191906000526020600020905b81548152906001019060200180831161043057829003601f168201915b5050505050815260200160028201805461046690611b91565b80601f016020809104026020016040519081016040528092919081815260200182805461049290611b91565b80156104df5780601f106104b4576101008083540402835291602001916104df565b820191906000526020600020905b8154815290600101906020018083116104c257829003601f168201915b505050505081526020016003820154815260200160048201805461050290611b91565b80601f016020809104026020016040519081016040528092919081815260200182805461052e90611b91565b801561057b5780601f106105505761010080835404028352916020019161057b565b820191906000526020600020905b81548152906001019060200180831161055e57829003601f168201915b5050509183525050600582015460208201526006909101546001600160a01b031660409091015282518390839081106105b6576105b6611b7b565b602002602001018190525080806105cc90611bcb565b915050610372565b50949350505050565b3360009081526003602052604081205460ff168061060557506005546001600160a01b031633145b6106565760405162461bcd60e51b815260206004820152601c60248201527f4e6f7420617574686f72697a656420746f206c6f67206576656e74730000000060448201526064015b60405180910390fd5b60008281526004602052604090205460ff16156106ae5760405162461bcd60e51b8152602060048201526016602482015275105b9bdb585b1e48185b1c9958591e481b1bd9d9d95960521b604482015260640161064d565b60648411156106ff5760405162461bcd60e51b815260206004820152601f60248201527f436f6e666964656e63652073636f7265206d757374206265203c3d2031303000604482015260640161064d565b6040805160e08101825242815260208101888152918101879052606081018690526080810185905260a081018490523360c0820152600180548082018255600091909152815160079091027fb10e2d527612073b26eecdfd717e6a320cf44b4afac2b0732d9fcbe2b7fa0cf681019182559251919283927fb10e2d527612073b26eecdfd717e6a320cf44b4afac2b0732d9fcbe2b7fa0cf7909101906107a59082611c33565b50604082015160028201906107ba9082611c33565b5060608201516003820155608082015160048201906107d99082611c33565b5060a0820151600582015560c090910151600690910180546001600160a01b0319166001600160a01b039092169190911790556001805460009161081c91611b62565b60008581526004602052604090819020805460ff1916600117905551909150610846908990611cf3565b6040518091039020817f326ed5ff5fe71ce5d877b7608191b3180d72584a0d3a4acb17c066b9d71c34cf89894260405161088293929190611d0f565b60405180910390a3979650505050505050565b6005546001600160a01b031633146108bf5760405162461bcd60e51b815260040161064d90611d34565b565b815160208184018101805160028252928201918501919091209190528054829081106108ec57600080fd5b90600052602060002001600091509150505481565b3360009081526003602052604081205460ff168061092957506005546001600160a01b031633145b6109755760405162461bcd60e51b815260206004820152601c60248201527f4e6f7420617574686f72697a656420746f206c6f67206576656e747300000000604482015260640161064d565b60008281526004602052604090205460ff16156109cb5760405162461bcd60e51b8152602060048201526014602482015273115d995b9d08185b1c9958591e481b1bd9d9d95960621b604482015260640161064d565b604080516101008101825242815260208101888152918101879052606081018690526080810185905260a081018490523360c0820152600060e082018190528054600181018255908052815160079091027f290decd9548b62a8d60345a988386fc84ba6bc95484008f6362f93160ef3e56381019182559251919283927f290decd9548b62a8d60345a988386fc84ba6bc95484008f6362f93160ef3e56490910190610a779082611c33565b5060408201516002820190610a8c9082611c33565b5060608201516003820190610aa19082611c33565b5060808201516004820190610ab69082611c33565b5060a0820151600582015560c08201516006909101805460e0909301511515600160a01b026001600160a81b03199093166001600160a01b039092169190911791909117905560008054610b0c90600190611b62565b9050600288604051610b1e9190611cf3565b9081526040805191829003602090810183208054600181810183556000928352838320909101869055888252600490925291909120805460ff19169091179055610b69908990611cf3565b6040518091039020817f7a2adae70b950063a486abe6ff8a74435b0185ece2884f6bf290365aa8e8058a8942604051610882929190611d75565b6005546001600160a01b03163314610bcd5760405162461bcd60e51b815260040161064d90611d34565b6001600160a01b038116600081815260036020526040808220805460ff19166001179055517fd576729e54c1a0846f1efbfdf9ec547dea55be936f85a664fa0e40801e17caf99190a250565b60018181548110610c2957600080fd5b60009182526020909120600790910201805460018201805491935090610c4e90611b91565b80601f0160208091040260200160405190810160405280929190818152602001828054610c7a90611b91565b8015610cc75780601f10610c9c57610100808354040283529160200191610cc7565b820191906000526020600020905b815481529060010190602001808311610caa57829003601f168201915b505050505090806002018054610cdc90611b91565b80601f0160208091040260200160405190810160405280929190818152602001828054610d0890611b91565b8015610d555780601f10610d2a57610100808354040283529160200191610d55565b820191906000526020600020905b815481529060010190602001808311610d3857829003601f168201915b505050505090806003015490806004018054610d7090611b91565b80601f0160208091040260200160405190810160405280929190818152602001828054610d9c90611b91565b8015610de95780601f10610dbe57610100808354040283529160200191610de9565b820191906000526020600020905b815481529060010190602001808311610dcc57829003601f168201915b5050505060058301546006909301549192916001600160a01b0316905087565b60008181548110610e1957600080fd5b60009182526020909120600790910201805460018201805491935090610e3e90611b91565b80601f0160208091040260200160405190810160405280929190818152602001828054610e6a90611b91565b8015610eb75780601f10610e8c57610100808354040283529160200191610eb7565b820191906000526020600020905b815481529060010190602001808311610e9a57829003601f168201915b505050505090806002018054610ecc90611b91565b80601f0160208091040260200160405190810160405280929190818152602001828054610ef890611b91565b8015610f455780601f10610f1a57610100808354040283529160200191610f45565b820191906000526020600020905b815481529060010190602001808311610f2857829003601f168201915b505050505090806003018054610f5a90611b91565b80601f0160208091040260200160405190810160405280929190818152602001828054610f8690611b91565b8015610fd35780601f10610fa857610100808354040283529160200191610fd3565b820191906000526020600020905b815481529060010190602001808311610fb657829003601f168201915b505050505090806004018054610fe890611b91565b80601f016020809104026020016040519081016040528092919081815260200182805461101490611b91565b80156110615780601f1061103657610100808354040283529160200191611061565b820191906000526020600020905b81548152906001019060200180831161104457829003601f168201915b5050505060058301546006909301549192916001600160a01b0381169150600160a01b900460ff1688565b6005546001600160a01b031633146110b65760405162461bcd60e51b815260040161064d90611d34565b60005481106110fe5760405162461bcd60e51b8152602060048201526014602482015273115d995b9d08191bd95cc81b9bdd08195e1a5cdd60621b604482015260640161064d565b60016000828154811061111357611113611b7b565b906000526020600020906007020160060160146101000a81548160ff02191690831515021790555050565b60606002826040516111509190611cf3565b90815260408051918290036020908101832080548083028501830190935282845291908301828280156111a257602002820191906000526020600020905b81548152602001906001019080831161118e575b50505050509050919050565b600080546060918184116111c257836111c4565b815b905060008167ffffffffffffffff8111156111e1576111e16116d9565b60405190808252806020026020018201604052801561126857816020015b61125560405180610100016040528060008152602001606081526020016060815260200160608152602001606081526020016000801916815260200160006001600160a01b031681526020016000151581525090565b8152602001906001900390816111ff5790505b50905060005b828110156105d457600081611284600187611b62565b61128e9190611b62565b8154811061129e5761129e611b7b565b906000526020600020906007020160405180610100016040529081600082015481526020016001820180546112d290611b91565b80601f01602080910402602001604051908101604052809291908181526020018280546112fe90611b91565b801561134b5780601f106113205761010080835404028352916020019161134b565b820191906000526020600020905b81548152906001019060200180831161132e57829003601f168201915b5050505050815260200160028201805461136490611b91565b80601f016020809104026020016040519081016040528092919081815260200182805461139090611b91565b80156113dd5780601f106113b2576101008083540402835291602001916113dd565b820191906000526020600020905b8154815290600101906020018083116113c057829003601f168201915b505050505081526020016003820180546113f690611b91565b80601f016020809104026020016040519081016040528092919081815260200182805461142290611b91565b801561146f5780601f106114445761010080835404028352916020019161146f565b820191906000526020600020905b81548152906001019060200180831161145257829003601f168201915b5050505050815260200160048201805461148890611b91565b80601f01602080910402602001604051908101604052809291908181526020018280546114b490611b91565b80156115015780601f106114d657610100808354040283529160200191611501565b820191906000526020600020905b8154815290600101906020018083116114e457829003601f168201915b5050509183525050600582015460208201526006909101546001600160a01b0381166040830152600160a01b900460ff161515606090910152825183908390811061154e5761154e611b7b565b6020026020010181905250808061156490611bcb565b91505061126e565b60006020828403121561157e57600080fd5b5035919050565b60005b838110156115a0578181015183820152602001611588565b50506000910152565b600081518084526115c1816020860160208601611585565b601f01601f19169290920160200192915050565b60006020808301818452808551808352604092508286019150828160051b87010184880160005b8381101561169b57603f19898403018552815160e08151855288820151818a87015261162a828701826115a9565b915050878201518582038987015261164282826115a9565b91505060608083015181870152506080808301518683038288015261166783826115a9565b60a0858101519089015260c0948501516001600160a01b0316949097019390935250505093860193908601906001016115fc565b509098975050505050505050565b6000602082840312156116bb57600080fd5b81356001600160a01b03811681146116d257600080fd5b9392505050565b634e487b7160e01b600052604160045260246000fd5b600082601f83011261170057600080fd5b813567ffffffffffffffff8082111561171b5761171b6116d9565b604051601f8301601f19908116603f01168101908282118183101715611743576117436116d9565b8160405283815286602085880101111561175c57600080fd5b836020870160208301376000602085830101528094505050505092915050565b600080600080600060a0868803121561179457600080fd5b853567ffffffffffffffff808211156117ac57600080fd5b6117b889838a016116ef565b965060208801359150808211156117ce57600080fd5b6117da89838a016116ef565b95506040880135945060608801359150808211156117f757600080fd5b50611804888289016116ef565b95989497509295608001359392505050565b6000806040838503121561182957600080fd5b823567ffffffffffffffff81111561184057600080fd5b61184c858286016116ef565b95602094909401359450505050565b600080600080600060a0868803121561187357600080fd5b853567ffffffffffffffff8082111561188b57600080fd5b61189789838a016116ef565b965060208801359150808211156118ad57600080fd5b6118b989838a016116ef565b955060408801359150808211156118cf57600080fd5b6118db89838a016116ef565b945060608801359150808211156117f757600080fd5b87815260e06020820152600061190a60e08301896115a9565b828103604084015261191c81896115a9565b9050866060840152828103608084015261193681876115a9565b60a084019590955250506001600160a01b039190911660c09091015295945050505050565b60006101008a83528060208401526119758184018b6115a9565b90508281036040840152611989818a6115a9565b9050828103606084015261199d81896115a9565b905082810360808401526119b181886115a9565b60a084019690965250506001600160a01b039290921660c0830152151560e09091015295945050505050565b6000602082840312156119ef57600080fd5b813567ffffffffffffffff811115611a0657600080fd5b611a12848285016116ef565b949350505050565b6020808252825182820181905260009190848201906040850190845b81811015611a5257835183529284019291840191600101611a36565b50909695505050505050565b60006020808301818452808551808352604092508286019150828160051b87010184880160005b8381101561169b57603f1989840301855281516101008151855288820151818a870152611ab4828701826115a9565b9150508782015185820389870152611acc82826115a9565b91505060608083015186830382880152611ae683826115a9565b9250505060808083015186830382880152611b0183826115a9565b9250505060a080830151818701525060c080830151611b2a828801826001600160a01b03169052565b505060e091820151151594909101939093529386019390860190600101611a85565b634e487b7160e01b600052601160045260246000fd5b81810381811115611b7557611b75611b4c565b92915050565b634e487b7160e01b600052603260045260246000fd5b600181811c90821680611ba557607f821691505b602082108103611bc557634e487b7160e01b600052602260045260246000fd5b50919050565b600060018201611bdd57611bdd611b4c565b5060010190565b601f821115611c2e57600081815260208120601f850160051c81016020861015611c0b5750805b601f850160051c820191505b81811015611c2a57828155600101611c17565b5050505b505050565b815167ffffffffffffffff811115611c4d57611c4d6116d9565b611c6181611c5b8454611b91565b84611be4565b602080601f831160018114611c965760008415611c7e5750858301515b600019600386901b1c1916600185901b178555611c2a565b600085815260208120601f198616915b82811015611cc557888601518255948401946001909101908401611ca6565b5085821015611ce35787850151600019600388901b60f8161c191681555b5050505050600190811b01905550565b60008251611d05818460208701611585565b9190910192915050565b606081526000611d2260608301866115a9565b60208301949094525060400152919050565b60208082526021908201527f4f6e6c79206f776e65722063616e2063616c6c20746869732066756e6374696f6040820152603760f91b606082015260800190565b604081526000611d8860408301856115a9565b9050826020830152939250505056fea2646970667358221220115cb0a3e75b503c437559b72b626d5d24438135e9d551d271129f269fb1cac064736f6c63430008130033",
  "immutableReferences": {},
  "source": "// SPDX-License-Identifier: MIT\r\npragma solidity ^0.8.19;\r\n\r\ncontract SpaceSecurityLogger {\r\n    // Event structure for logging security events\r\n    struct SecurityEvent {\r\n        uint256 timestamp;\r\n        string satelliteId;\r\n        string eventType;\r\n        string severity;\r\n        string description;\r\n        bytes32 dataHash;\r\n        address reporter;\r\n        bool verified;\r\n    }\r\n    \r\n    // Event structure for anomaly detection results\r\n    struct AnomalyEvent {\r\n        uint256 timestamp;\r\n        string satelliteId;\r\n        string anomalyType;\r\n        uint256 confidenceScore;\r\n        string telemetryData;\r\n        bytes32 dataHash;\r\n        address detector;\r\n    }\r\n    \r\n    // Storage\r\n    SecurityEvent[] public securityEvents;\r\n    AnomalyEvent[] public anomalyEvents;\r\n    \r\n    // Mappings for quick access\r\n    mapping(string => uint256[]) public eventsBySatellite;\r\n    mapping(address => bool) public authorizedReporters;\r\n    mapping(bytes32 => bool) public eventHashes;\r\n    \r\n    // Access control\r\n    address public owner;\r\n    \r\n    // Events for frontend listening\r\n    event SecurityEventLogged(\r\n        uint256 indexed eventId,\r\n        string indexed satelliteId,\r\n        string eventType,\r\n        uint256 timestamp\r\n    );\r\n    \r\n    event AnomalyDetected(\r\n        uint256 indexed anomalyId,\r\n        string indexed satelliteId,\r\n        string anomalyType,\r\n        uint256 confidenceScore,\r\n        uint256 timestamp\r\n    );\r\n    \r\n    event ReporterAuthorized(address indexed reporter);\r\n    \r\n    modifier onlyOwner() {\r\n        require(msg.sender == owner, \"Only owner can call this function\");\r\n        _;\r\n    }\r\n    \r\n    modifier onlyAuthorized() {\r\n        require(\r\n            authorizedReporters[msg.sender] || msg.sender == owner,\r\n            \"Not authorized to log events\"\r\n        );\r\n        _;\r\n    }\r\n    \r\n    constructor() {\r\n        owner = msg.sender;\r\n        authorizedReporters[msg.sender] = true;\r\n    }\r\n    \r\n    // Authorize new reporters (AI systems, ground stations, etc.)\r\n    function authorizeReporter(address _reporter) public onlyOwner {\r\n        authorizedReporters[_reporter] = true;\r\n        emit ReporterAuthorized(_reporter);\r\n    }\r\n    \r\n    // Log security events (attacks, breaches, etc.)\r\n    function logSecurityEvent(\r\n        string memory _satelliteId,\r\n        string memory _eventType,\r\n        string memory _severity,\r\n        string memory _description,\r\n        bytes32 _dataHash\r\n    ) public onlyAuthorized returns (uint256) {\r\n        // Prevent duplicate events\r\n        require(!eventHashes[_dataHash], \"Event already logged\");\r\n        \r\n        SecurityEvent memory newEvent = SecurityEvent({\r\n            timestamp: block.timestamp,\r\n            satelliteId: _satelliteId,\r\n            eventType: _eventType,\r\n            severity: _severity,\r\n            description: _description,\r\n            dataHash: _dataHash,\r\n            reporter: msg.sender,\r\n            verified: false\r\n        });\r\n        \r\n        securityEvents.push(newEvent);\r\n        uint256 eventId = securityEvents.length - 1;\r\n        \r\n        eventsBySatellite[_satelliteId].push(eventId);\r\n        eventHashes[_dataHash] = true;\r\n        \r\n        emit SecurityEventLogged(eventId, _satelliteId, _eventType, block.timestamp);\r\n        \r\n        return eventId;\r\n    }\r\n    \r\n    // Log anomaly detection results\r\n    function logAnomaly(\r\n        string memory _satelliteId,\r\n        string memory _anomalyType,\r\n        uint256 _confidenceScore,\r\n        string memory _telemetryData,\r\n        bytes32 _dataHash\r\n    ) public onlyAuthorized returns (uint256) {\r\n        require(!eventHashes[_dataHash], \"Anomaly already logged\");\r\n        require(_confidenceScore <= 100, \"Confidence score must be <= 100\");\r\n        \r\n        AnomalyEvent memory newAnomaly = AnomalyEvent({\r\n            timestamp: block.timestamp,\r\n            satelliteId: _satelliteId,\r\n            anomalyType: _anomalyType,\r\n            confidenceScore: _confidenceScore,\r\n            telemetryData: _telemetryData,\r\n            dataHash: _dataHash,\r\n            detector: msg.sender\r\n        });\r\n        \r\n        anomalyEvents.push(newAnomaly);\r\n        uint256 anomalyId = anomalyEvents.length - 1;\r\n        \r\n        eventHashes[_dataHash] = true;\r\n        \r\n        emit AnomalyDetected(\r\n            anomalyId,\r\n            _satelliteId,\r\n            _anomalyType,\r\n            _confidenceScore,\r\n            block.timestamp\r\n        );\r\n        \r\n        return anomalyId;\r\n    }\r\n    \r\n    // Verify security events (for trust scoring)\r\n    function verifyEvent(uint256 _eventId) public onlyOwner {\r\n        require(_eventId < securityEvents.length, \"Event does not exist\");\r\n        securityEvents[_eventId].verified = true;\r\n    }\r\n    \r\n    // Get events for a specific satellite\r\n    function getEventsBySatellite(string memory _satelliteId) \r\n        public view returns (uint256[] memory) {\r\n        return eventsBySatellite[_satelliteId];\r\n    }\r\n    \r\n    // Get recent security events\r\n    function getRecentSecurityEvents(uint256 _count) \r\n        public view returns (SecurityEvent[] memory) {\r\n        uint256 totalEvents = securityEvents.length;\r\n        uint256 returnCount = _count > totalEvents ? totalEvents : _count;\r\n        \r\n        SecurityEvent[] memory recentEvents = new SecurityEvent[](returnCount);\r\n        \r\n        for (uint256 i = 0; i < returnCount; i++) {\r\n            recentEvents[i] = securityEvents[totalEvents - 1 - i];\r\n        }\r\n        \r\n        return recentEvents;\r\n    }\r\n    \r\n    // Get recent anomalies\r\n    function getRecentAnomalies(uint256 _count) \r\n        public view returns (AnomalyEvent[] memory) {\r\n        uint256 totalAnomalies = anomalyEvents.length;\r\n        uint256 returnCount = _count > totalAnomalies ? totalAnomalies : _count;\r\n        \r\n        AnomalyEvent[] memory recentAnomalies = new AnomalyEvent[](returnCount);\r\n        \r\n        for (uint256 i = 0; i < returnCount; i++) {\r\n            recentAnomalies[i] = anomalyEvents[totalAnomalies - 1 - i];\r\n        }\r\n        \r\n        return recentAnomalies;\r\n    }\r\n    \r\n    // Get total counts\r\n    function getTotalSecurityEvents() public view returns (uint256) {\r\n        return securityEvents.length;\r\n    }\r\n    \r\n    function getTotalAnomalies() public view returns (uint256) {\r\n        return anomalyEvents.length;\r\n    }\r\n    \r\n    // Emergency functions\r\n    function pauseContract() public onlyOwner {\r\n        // Implementation for emergency pause\r\n    }\r\n}",
  "sourcePath": "C:\\Users\\bosea\\space-security-project\\blockchain\\contracts\\SpaceSecurityLogger.sol",
  "compiler": {
    "name": "solc",
    "version": "0.8.19+commit.7dd6d404.Emscripten.clang"
  },
  "schemaVersion": "3.4.16",
  "updatedAt": "2025-09-13T09:51:03.079Z",
  "networkType": "ethereum",
  "devdoc": {
    "kind": "dev",
    "methods": {},
    "version": 1
  },
  "userdoc": {
    "kind": "user",
    "methods": {},
    "version": 1
  }
}